{"contracts/pool/Pool.sol":{"Pool":{"abi":[{"type":"constructor","inputs":[{"name":"_lendToken","type":"address","internalType":"address"},{"name":"_ethUsdPriceFeed","type":"address","internalType":"address"},{"name":"_totalSupply","type":"uint256","internalType":"uint256"},{"name":"_totalBorrowed","type":"uint256","internalType":"uint256"}],"stateMutability":"nonpayable"},{"type":"fallback","stateMutability":"payable"},{"type":"receive","stateMutability":"payable"},{"type":"function","name":"borrow","inputs":[{"name":"amountToBorrow","type":"uint256","internalType":"uint256"}],"outputs":[],"stateMutability":"nonpayable"},{"type":"function","name":"calculateInterest","inputs":[{"name":"utilization","type":"uint256","internalType":"uint256"}],"outputs":[{"name":"","type":"uint256","internalType":"uint256"}],"stateMutability":"pure"},{"type":"function","name":"collateralBalance","inputs":[{"name":"","type":"address","internalType":"address"}],"outputs":[{"name":"","type":"uint256","internalType":"uint256"}],"stateMutability":"view"},{"type":"function","name":"depositCollateral","inputs":[{"name":"amount","type":"uint256","internalType":"uint256"}],"outputs":[],"stateMutability":"payable"},{"type":"function","name":"getEthUsdPrice","inputs":[],"outputs":[{"name":"","type":"uint256","internalType":"uint256"}],"stateMutability":"view"},{"type":"function","name":"healthFactor","inputs":[{"name":"user","type":"address","internalType":"address"}],"outputs":[{"name":"","type":"uint256","internalType":"uint256"}],"stateMutability":"view"},{"type":"function","name":"i_ethUsdPriceFeed","inputs":[],"outputs":[{"name":"","type":"address","internalType":"contract AggregatorV3Interface"}],"stateMutability":"view"},{"type":"function","name":"i_lendToken","inputs":[],"outputs":[{"name":"","type":"address","internalType":"contract LendToken"}],"stateMutability":"view"},{"type":"function","name":"liquidate","inputs":[{"name":"user","type":"address","internalType":"address"},{"name":"amount","type":"uint256","internalType":"uint256"}],"outputs":[],"stateMutability":"nonpayable"},{"type":"function","name":"setCollateralBalance","inputs":[{"name":"user","type":"address","internalType":"address"},{"name":"amount","type":"uint256","internalType":"uint256"}],"outputs":[],"stateMutability":"nonpayable"},{"type":"function","name":"totalBorrowed","inputs":[],"outputs":[{"name":"","type":"uint256","internalType":"uint256"}],"stateMutability":"view"},{"type":"function","name":"totalSupply","inputs":[],"outputs":[{"name":"","type":"uint256","internalType":"uint256"}],"stateMutability":"view"},{"type":"function","name":"transferLendTokenOwnership","inputs":[{"name":"newOwner","type":"address","internalType":"address"}],"outputs":[],"stateMutability":"nonpayable"},{"type":"function","name":"withdrawCollateral","inputs":[{"name":"amount","type":"uint256","internalType":"uint256"}],"outputs":[],"stateMutability":"nonpayable"},{"type":"event","name":"CollateralDeposited","inputs":[{"name":"user","type":"address","indexed":true,"internalType":"address"},{"name":"amount","type":"uint256","indexed":false,"internalType":"uint256"}],"anonymous":false},{"type":"event","name":"CollateralLiquidated","inputs":[{"name":"user","type":"address","indexed":true,"internalType":"address"},{"name":"amountOfCollateral","type":"uint256","indexed":false,"internalType":"uint256"},{"name":"amountOfLendTokens","type":"uint256","indexed":false,"internalType":"uint256"}],"anonymous":false},{"type":"event","name":"CollateralWithdrawn","inputs":[{"name":"user","type":"address","indexed":true,"internalType":"address"},{"name":"amount","type":"uint256","indexed":false,"internalType":"uint256"}],"anonymous":false},{"type":"event","name":"LendTokenBorrowed","inputs":[{"name":"user","type":"address","indexed":true,"internalType":"address"},{"name":"amount","type":"uint256","indexed":false,"internalType":"uint256"}],"anonymous":false},{"type":"error","name":"Pool__AmountTooHigh","inputs":[]},{"type":"error","name":"Pool__HasDebt","inputs":[]},{"type":"error","name":"Pool__HealthFactorIsOk","inputs":[]},{"type":"error","name":"Pool__HealthFactorTooLow","inputs":[]},{"type":"error","name":"Pool__NotEnoughBalance","inputs":[]},{"type":"error","name":"Pool__NotEnoughTokens","inputs":[]},{"type":"error","name":"Pool__TransferFailed","inputs":[]},{"type":"error","name":"ReentrancyGuardReentrantCall","inputs":[]}],"userdoc":{},"devdoc":{},"evm":{"bytecode":{"object":"60c060405234801561000f575f5ffd5b50604051610dc4380380610dc483398101604081905261002e91610070565b60015f556001600160a01b039384166080529190921660a0526002919091556003556100b0565b80516001600160a01b038116811461006b575f5ffd5b919050565b5f5f5f5f60808587031215610083575f5ffd5b61008c85610055565b935061009a60208601610055565b6040860151606090960151949790965092505050565b60805160a051610cc26101025f395f8181610123015261060b01525f818161016e0152818161031e015281816104b30152818161058a015281816108c801528181610a350152610af20152610cc25ff3fe6080604052600436106100d3575f3560e01c8063a0a8045e11610078578063bad4a01f11610055578063bad4a01f14610261578063bcbaf48714610274578063c5ebeaec14610293578063e909e594146102b257005b8063a0a8045e14610203578063a1bf284014610217578063a57475e01461024257005b80634ffd695e116100b15780634ffd695e1461015d5780636112fe2e14610190578063632ba2b5146101af5780636ad9f9df146101e457005b806318160ddd146100d55780634c19386c146100fd5780634fba2d4314610112575b005b3480156100e0575f5ffd5b506100ea60025481565b6040519081526020015b60405180910390f35b348015610108575f5ffd5b506100ea60035481565b34801561011d575f5ffd5b506101457f000000000000000000000000000000000000000000000000000000000000000081565b6040516001600160a01b0390911681526020016100f4565b348015610168575f5ffd5b506101457f000000000000000000000000000000000000000000000000000000000000000081565b34801561019b575f5ffd5b506100d36101aa366004610b29565b6102d1565b3480156101ba575f5ffd5b506100d36101c9366004610b56565b6001600160a01b039091165f90815260016020526040902055565b3480156101ef575f5ffd5b506100ea6101fe366004610b7e565b610492565b34801561020e575f5ffd5b506100ea610607565b348015610222575f5ffd5b506100ea610231366004610b7e565b60016020525f908152604090205481565b34801561024d575f5ffd5b506100ea61025c366004610b29565b610694565b6100d361026f366004610b29565b61071a565b34801561027f575f5ffd5b506100d361028e366004610b56565b6107b8565b34801561029e575f5ffd5b506100d36102ad366004610b29565b6107d7565b3480156102bd575f5ffd5b506100d36102cc366004610b7e565b6108a9565b6102d9610923565b335f908152600160205260409020548111156103075760405162d233dd60e71b815260040160405180910390fd5b6040516370a0823160e01b81523360048201525f907f00000000000000000000000000000000000000000000000000000000000000006001600160a01b0316906370a0823190602401602060405180830381865afa15801561036b573d5f5f3e3d5ffd5b505050506040513d601f19601f8201168201806040525081019061038f9190610b9e565b11156103ae57604051631ce009a760e21b815260040160405180910390fd5b335f90815260016020526040812080548392906103cc908490610bc9565b925050819055508060025f8282546103e49190610bc9565b90915550506040515f90339083908381818185875af1925050503d805f8114610428576040519150601f19603f3d011682016040523d82523d5f602084013e61042d565b606091505b505090508061044f5760405163b824f03160e01b815260040160405180910390fd5b60405182815233907fc30fcfbcaac9e0deffa719714eaa82396ff506a0d0d0eebe170830177288715d906020015b60405180910390a25061048f60015f55565b50565b6040516370a0823160e01b81526001600160a01b0382811660048301525f917f0000000000000000000000000000000000000000000000000000000000000000909116906370a0823190602401602060405180830381865afa1580156104fa573d5f5f3e3d5ffd5b505050506040513d601f19601f8201168201806040525081019061051e9190610b9e565b5f0361052c57505f19919050565b5f6305f5e10061053a610607565b6001600160a01b0385165f9081526001602052604090205461055c9190610bdc565b6105669190610bf3565b6040516370a0823160e01b81526001600160a01b0385811660048301529192505f917f000000000000000000000000000000000000000000000000000000000000000016906370a0823190602401602060405180830381865afa1580156105cf573d5f5f3e3d5ffd5b505050506040513d601f19601f820116820180604052508101906105f39190610b9e565b90506105ff818361094b565b949350505050565b5f5f7f00000000000000000000000000000000000000000000000000000000000000006001600160a01b031663feaf968c6040518163ffffffff1660e01b815260040160a060405180830381865afa158015610665573d5f5f3e3d5ffd5b505050506040513d601f19601f820116820180604052508101906106899190610c2b565b509195945050505050565b5f605082116106c55760646106aa600484610bdc565b6106b49190610bf3565b6106bf906002610c79565b92915050565b6064604b6106d4605085610bc9565b6106de9190610bdc565b6106e89190610bf3565b60646106f660046050610bdc565b6107009190610bf3565b61070b906002610c79565b6106bf9190610c79565b919050565b610722610923565b8034146107415760405162d233dd60e71b815260040160405180910390fd5b8060025f8282546107529190610c79565b9091555050335f9081526001602052604081208054839290610775908490610c79565b909155505060405181815233907fd7243f6f8212d5188fd054141cf6ea89cfc0d91facb8c3afe2f88a13584801429060200160405180910390a261048f60015f55565b6107c0610923565b6107ca8282610992565b6107d360015f55565b5050565b6107df610923565b335f90815260016020526040812054900361080c5760405162d233dd60e71b815260040160405180910390fd5b335f9081526001602052604081205460969061082a90606490610bdc565b6108349190610bf3565b90508082111561085757604051636cd9685760e01b815260040160405180910390fd5b8160035f8282546108689190610c79565b90915550610877905082610ad6565b60405182815233907f1900a38db031d2eaabe35520d83c7bcd24da3658e683ba58e75a799a5d0967699060200161047d565b60405163f2fde38b60e01b81526001600160a01b0382811660048301527f0000000000000000000000000000000000000000000000000000000000000000169063f2fde38b906024015b5f604051808303815f87803b15801561090a575f5ffd5b505af115801561091c573d5f5f3e3d5ffd5b5050505050565b60025f540361094557604051633ee5aeb560e01b815260040160405180910390fd5b60025f55565b5f825f0361095b57505f196106bf565b5f6064610969603285610bdc565b6109739190610bf3565b905083610988670de0b6b3a764000083610bdc565b6105ff9190610bf3565b5f61099c83610492565b9050670de0b6b3a764000081106109c65760405163ac19675360e01b815260040160405180910390fd5b5f60966109d4606485610bdc565b6109de9190610bf3565b6001600160a01b0385165f90815260016020526040812080549293508592909190610a0a908490610bc9565b9091555050604051632770a7eb60e21b81526001600160a01b038581166004830152602482018390527f00000000000000000000000000000000000000000000000000000000000000001690639dc29fac906044015f604051808303815f87803b158015610a76575f5ffd5b505af1158015610a88573d5f5f3e3d5ffd5b505060408051868152602081018590526001600160a01b03881693507f4f65008ff243a1aab5777a6563d91c319b667f92b3f74af652fc9cd4f247d20b92500160405180910390a250505050565b6040516340c10f1960e01b8152336004820152602481018290527f00000000000000000000000000000000000000000000000000000000000000006001600160a01b0316906340c10f19906044016108f3565b5f60208284031215610b39575f5ffd5b5035919050565b80356001600160a01b0381168114610715575f5ffd5b5f5f60408385031215610b67575f5ffd5b610b7083610b40565b946020939093013593505050565b5f60208284031215610b8e575f5ffd5b610b9782610b40565b9392505050565b5f60208284031215610bae575f5ffd5b5051919050565b634e487b7160e01b5f52601160045260245ffd5b818103818111156106bf576106bf610bb5565b80820281158282048414176106bf576106bf610bb5565b5f82610c0d57634e487b7160e01b5f52601260045260245ffd5b500490565b805169ffffffffffffffffffff81168114610715575f5ffd5b5f5f5f5f5f60a08688031215610c3f575f5ffd5b610c4886610c12565b60208701516040880151606089015192975090955093509150610c6d60808701610c12565b90509295509295909350565b808201808211156106bf576106bf610bb556fea264697066735822122043ec358113270f8f7fdf387f7fd5fe3229f2398bb1131734b1776d930c4ed16464736f6c634300081c0033","linkReferences":{}},"methodIdentifiers":{"borrow(uint256)":"c5ebeaec","calculateInterest(uint256)":"a57475e0","collateralBalance(address)":"a1bf2840","depositCollateral(uint256)":"bad4a01f","getEthUsdPrice()":"a0a8045e","healthFactor(address)":"6ad9f9df","i_ethUsdPriceFeed()":"4fba2d43","i_lendToken()":"4ffd695e","liquidate(address,uint256)":"bcbaf487","setCollateralBalance(address,uint256)":"632ba2b5","totalBorrowed()":"4c19386c","totalSupply()":"18160ddd","transferLendTokenOwnership(address)":"e909e594","withdrawCollateral(uint256)":"6112fe2e"}}}}}