{"contracts/pool/Pool.sol":{"Pool":{"abi":[{"type":"constructor","inputs":[{"name":"_lendToken","type":"address","internalType":"address"}],"stateMutability":"nonpayable"},{"type":"receive","stateMutability":"payable"},{"type":"function","name":"BASE_RATE","inputs":[],"outputs":[{"name":"","type":"uint256","internalType":"uint256"}],"stateMutability":"view"},{"type":"function","name":"COLLATERAL_RATIO","inputs":[],"outputs":[{"name":"","type":"uint256","internalType":"uint256"}],"stateMutability":"view"},{"type":"function","name":"OPTIMAL_UTILIZATION","inputs":[],"outputs":[{"name":"","type":"uint256","internalType":"uint256"}],"stateMutability":"view"},{"type":"function","name":"PRECISION","inputs":[],"outputs":[{"name":"","type":"uint256","internalType":"uint256"}],"stateMutability":"view"},{"type":"function","name":"SLOPE1","inputs":[],"outputs":[{"name":"","type":"uint256","internalType":"uint256"}],"stateMutability":"view"},{"type":"function","name":"SLOPE2","inputs":[],"outputs":[{"name":"","type":"uint256","internalType":"uint256"}],"stateMutability":"view"},{"type":"function","name":"borrow","inputs":[{"name":"amountToBorrow","type":"uint256","internalType":"uint256"}],"outputs":[],"stateMutability":"nonpayable"},{"type":"function","name":"calculateInterest","inputs":[{"name":"utilization","type":"uint256","internalType":"uint256"}],"outputs":[{"name":"","type":"uint256","internalType":"uint256"}],"stateMutability":"pure"},{"type":"function","name":"collateralBalance","inputs":[{"name":"","type":"address","internalType":"address"}],"outputs":[{"name":"","type":"uint256","internalType":"uint256"}],"stateMutability":"view"},{"type":"function","name":"depositCollateral","inputs":[{"name":"amount","type":"uint256","internalType":"uint256"}],"outputs":[],"stateMutability":"payable"},{"type":"function","name":"healthFactor","inputs":[{"name":"user","type":"address","internalType":"address"}],"outputs":[{"name":"","type":"uint256","internalType":"uint256"}],"stateMutability":"view"},{"type":"function","name":"i_lendToken","inputs":[],"outputs":[{"name":"","type":"address","internalType":"contract LendToken"}],"stateMutability":"view"},{"type":"function","name":"liquidate","inputs":[{"name":"user","type":"address","internalType":"address"},{"name":"amount","type":"uint256","internalType":"uint256"}],"outputs":[],"stateMutability":"nonpayable"},{"type":"function","name":"withdrawCollateral","inputs":[{"name":"amount","type":"uint256","internalType":"uint256"}],"outputs":[],"stateMutability":"nonpayable"},{"type":"event","name":"CollateralDeposited","inputs":[{"name":"user","type":"address","indexed":true,"internalType":"address"},{"name":"amount","type":"uint256","indexed":false,"internalType":"uint256"}],"anonymous":false},{"type":"event","name":"CollateralLiquidated","inputs":[{"name":"user","type":"address","indexed":true,"internalType":"address"},{"name":"amountOfCollateral","type":"uint256","indexed":false,"internalType":"uint256"},{"name":"amountOfLendTokens","type":"uint256","indexed":false,"internalType":"uint256"}],"anonymous":false},{"type":"event","name":"CollateralWithdrawn","inputs":[{"name":"user","type":"address","indexed":true,"internalType":"address"},{"name":"amount","type":"uint256","indexed":false,"internalType":"uint256"}],"anonymous":false},{"type":"event","name":"LendTokenBorrowed","inputs":[{"name":"user","type":"address","indexed":true,"internalType":"address"},{"name":"amount","type":"uint256","indexed":false,"internalType":"uint256"}],"anonymous":false},{"type":"error","name":"Pool__AmountTooHigh","inputs":[]},{"type":"error","name":"Pool__HasDebt","inputs":[]},{"type":"error","name":"Pool__HealthFactorIsOk","inputs":[]},{"type":"error","name":"Pool__HealthFactorTooLow","inputs":[]},{"type":"error","name":"Pool__NotEnoughBalance","inputs":[]},{"type":"error","name":"Pool__NotEnoughTokens","inputs":[]},{"type":"error","name":"ReentrancyGuardReentrantCall","inputs":[]}],"userdoc":{},"devdoc":{},"evm":{"bytecode":{"object":"60a060405234801561000f575f5ffd5b50604051610c24380380610c2483398101604081905261002e91610043565b60015f556001600160a01b0316608052610070565b5f60208284031215610053575f5ffd5b81516001600160a01b0381168114610069575f5ffd5b9392505050565b608051610b726100b25f395f818161011f015281816102e501528181610426015281816104be0152818161083e0152818161091b01526109de0152610b725ff3fe6080604052600436106100dc575f3560e01c8063aaf5eb681161007c578063c5ebeaec11610057578063c5ebeaec1461023d578063cf762dfa1461025c578063d9e69a0514610270578063f93c669514610284575f5ffd5b8063aaf5eb68146101f7578063bad4a01f1461020b578063bcbaf4871461021e575f5ffd5b80636ad9f9df116100b75780636ad9f9df1461017a5780636f4d8ada14610199578063a1bf2840146101ad578063a57475e0146101d8575f5ffd5b806341910f90146100e75780634ffd695e1461010e5780636112fe2e14610159575f5ffd5b366100e357005b5f5ffd5b3480156100f2575f5ffd5b506100fb600281565b6040519081526020015b60405180910390f35b348015610119575f5ffd5b506101417f000000000000000000000000000000000000000000000000000000000000000081565b6040516001600160a01b039091168152602001610105565b348015610164575f5ffd5b50610178610173366004610a40565b610298565b005b348015610185575f5ffd5b506100fb610194366004610a6d565b610405565b3480156101a4575f5ffd5b506100fb604b81565b3480156101b8575f5ffd5b506100fb6101c7366004610a6d565b60016020525f908152604090205481565b3480156101e3575f5ffd5b506100fb6101f2366004610a40565b61055b565b348015610202575f5ffd5b506100fb606481565b610178610219366004610a40565b6105db565b348015610229575f5ffd5b50610178610238366004610a8d565b610657565b348015610248575f5ffd5b50610178610257366004610a40565b610676565b348015610267575f5ffd5b506100fb605081565b34801561027b575f5ffd5b506100fb609681565b34801561028f575f5ffd5b506100fb600481565b6102a0610768565b335f908152600160205260409020548111156102ce5760405162d233dd60e71b815260040160405180910390fd5b6040516370a0823160e01b81523360048201525f907f00000000000000000000000000000000000000000000000000000000000000006001600160a01b0316906370a0823190602401602060405180830381865afa158015610332573d5f5f3e3d5ffd5b505050506040513d601f19601f820116820180604052508101906103569190610ab5565b111561037557604051631ce009a760e21b815260040160405180910390fd5b335f9081526001602052604081208054839290610393908490610ae0565b9091555050604051339082156108fc029083905f818181858888f193505050501580156103c2573d5f5f3e3d5ffd5b5060405181815233907fc30fcfbcaac9e0deffa719714eaa82396ff506a0d0d0eebe170830177288715d906020015b60405180910390a261040260015f55565b50565b6040516370a0823160e01b81526001600160a01b0382811660048301525f917f0000000000000000000000000000000000000000000000000000000000000000909116906370a0823190602401602060405180830381865afa15801561046d573d5f5f3e3d5ffd5b505050506040513d601f19601f820116820180604052508101906104919190610ab5565b5f0361049f57505f19919050565b6040516370a0823160e01b81526001600160a01b0383811660048301527f000000000000000000000000000000000000000000000000000000000000000016906370a0823190602401602060405180830381865afa158015610503573d5f5f3e3d5ffd5b505050506040513d601f19601f820116820180604052508101906105279190610ab5565b6001600160a01b0383165f9081526001602052604090205461054b90606490610af3565b6105559190610b0a565b92915050565b5f60508211610586576064610571600484610af3565b61057b9190610b0a565b610555906002610b29565b6064604b610595605085610ae0565b61059f9190610af3565b6105a99190610b0a565b60646105b760506004610af3565b6105c19190610b0a565b6105cc906002610b29565b6105559190610b29565b919050565b6105e3610768565b8034146106025760405162d233dd60e71b815260040160405180910390fd5b335f9081526001602052604081208054839290610620908490610b29565b909155505060405181815233907fd7243f6f8212d5188fd054141cf6ea89cfc0d91facb8c3afe2f88a1358480142906020016103f1565b61065f610768565b6106698282610790565b61067260015f55565b5050565b61067e610768565b335f9081526001602052604081205490036106ab5760405162d233dd60e71b815260040160405180910390fd5b335f908152600160205260408120546096906106c990606490610af3565b6106d39190610b0a565b9050808211156106f657604051636cd9685760e01b815260040160405180910390fd5b609661070133610405565b1015610720576040516319fd906560e01b815260040160405180910390fd5b610729826109c2565b60405182815233907f1900a38db031d2eaabe35520d83c7bcd24da3658e683ba58e75a799a5d0967699060200160405180910390a25061040260015f55565b60025f540361078a57604051633ee5aeb560e01b815260040160405180910390fd5b60025f55565b610798610768565b5f6107a283610405565b9050609681106107c55760405163ac19675360e01b815260040160405180910390fd5b6001600160a01b0383165f9081526001602052604081205483116107e95782610802565b6001600160a01b0384165f908152600160205260409020545b90505f6096610812606484610af3565b61081c9190610b0a565b6040516370a0823160e01b81526001600160a01b0387811660048301529192507f0000000000000000000000000000000000000000000000000000000000000000909116906370a0823190602401602060405180830381865afa158015610885573d5f5f3e3d5ffd5b505050506040513d601f19601f820116820180604052508101906108a99190610ab5565b8111156108c957604051636c6ff1cf60e11b815260040160405180910390fd5b6001600160a01b0385165f90815260016020526040812080548492906108f0908490610ae0565b9091555050604051632770a7eb60e21b81526001600160a01b038681166004830152602482018390527f00000000000000000000000000000000000000000000000000000000000000001690639dc29fac906044015f604051808303815f87803b15801561095c575f5ffd5b505af115801561096e573d5f5f3e3d5ffd5b505060408051858152602081018590526001600160a01b03891693507f4f65008ff243a1aab5777a6563d91c319b667f92b3f74af652fc9cd4f247d20b92500160405180910390a250505061067260015f55565b6040516340c10f1960e01b8152336004820152602481018290527f00000000000000000000000000000000000000000000000000000000000000006001600160a01b0316906340c10f19906044015f604051808303815f87803b158015610a27575f5ffd5b505af1158015610a39573d5f5f3e3d5ffd5b5050505050565b5f60208284031215610a50575f5ffd5b5035919050565b80356001600160a01b03811681146105d6575f5ffd5b5f60208284031215610a7d575f5ffd5b610a8682610a57565b9392505050565b5f5f60408385031215610a9e575f5ffd5b610aa783610a57565b946020939093013593505050565b5f60208284031215610ac5575f5ffd5b5051919050565b634e487b7160e01b5f52601160045260245ffd5b8181038181111561055557610555610acc565b808202811582820484141761055557610555610acc565b5f82610b2457634e487b7160e01b5f52601260045260245ffd5b500490565b8082018082111561055557610555610acc56fea2646970667358221220ee7acc3092b73a64c940c30f86208148e8fcc5701b3ebc34becec45eed9c031b64736f6c634300081c0033","linkReferences":{}},"methodIdentifiers":{"BASE_RATE()":"41910f90","COLLATERAL_RATIO()":"d9e69a05","OPTIMAL_UTILIZATION()":"cf762dfa","PRECISION()":"aaf5eb68","SLOPE1()":"f93c6695","SLOPE2()":"6f4d8ada","borrow(uint256)":"c5ebeaec","calculateInterest(uint256)":"a57475e0","collateralBalance(address)":"a1bf2840","depositCollateral(uint256)":"bad4a01f","healthFactor(address)":"6ad9f9df","i_lendToken()":"4ffd695e","liquidate(address,uint256)":"bcbaf487","withdrawCollateral(uint256)":"6112fe2e"}}}}}